:020000000A28CC
:10000800FE00030EF1000A08F20044280B2897208E
:10001800FB00F701F801F901FA01830113286720B1
:100028007B08031914280330F6008A30F500553090
:10003800F400F40B1D28F50B1D28F60B1D282428A9
:10004800031083120313051C0314031C2F288312A7
:100058000313051432288312031305107B08872025
:100068000330F6008A30F5005530F400F40B3A28D6
:10007800F50B3A28F60B3A2841280130FB021428E0
:10008800831603138C1E602883128C1A4E2860284E
:100098008D2094208C1A4C28181D58280130F900FE
:1000A8000030FA0098139817981C60280130F70060
:1000B8000030F8001812181672088A00710E8300B2
:1000C800FE0E7E0E0900912083121F149F141F1527
:1000D8008316861406150510831205108316181347
:1000E800981618121815831298171813181619301D
:1000F800831699000C1283128C120C1283168C161C
:100108000B178B170800F3000C1E8828730899003A
:100118000800831203131A08080083168E150800B6
:08012800F000FB0008000334A5
:02400E00183F59
:00000001FF
