:02000000FE2FD1
:100F7A0083168E150800831203130108F000700807
:100F8A00F10071080800BD270510051683121F1409
:100F9A009F141F15051083168113811601128111E2
:100FAA00F8308105831281010800C827C027F200A2
:100FBA007208F50005307506031DDB2F0310051CAA
:100FCA000314031CEC2F831203130514EF2F83124F
:100FDA000313051081010B30F4002630F3005D3055
:100FEA00F200F20BF62FF30BF62FF40BF62FFD2F70
:060FFA00DB2F8301DA2F5A
:02400E00183F59
:00000001FF
